{
  "contractName": "IpfsContract",
  "abi": [
    {
      "constant": true,
      "inputs": [],
      "name": "ipfsHash",
      "outputs": [
        {
          "name": "",
          "type": "string"
        }
      ],
      "payable": false,
      "stateMutability": "view",
      "type": "function"
    },
    {
      "constant": false,
      "inputs": [
        {
          "name": "_ipfsHash",
          "type": "string"
        }
      ],
      "name": "setHash",
      "outputs": [],
      "payable": false,
      "stateMutability": "nonpayable",
      "type": "function"
    },
    {
      "constant": true,
      "inputs": [],
      "name": "getHash",
      "outputs": [
        {
          "name": "",
          "type": "string"
        }
      ],
      "payable": false,
      "stateMutability": "view",
      "type": "function"
    }
  ],
  "bytecode": "0x6060604052341561000f57600080fd5b6103e78061001e6000396000f300606060405260043610610057576000357c0100000000000000000000000000000000000000000000000000000000900463ffffffff1680631ed83fd41461005c578063c623674f1461008a578063d13319c414610118575b600080fd5b341561006757600080fd5b610088600480803590602001908201803590602001919091929050506101a6565b005b341561009557600080fd5b61009d6101bc565b6040518080602001828103825283818151815260200191508051906020019080838360005b838110156100dd5780820151818401526020810190506100c2565b50505050905090810190601f16801561010a5780820380516001836020036101000a031916815260200191505b509250505060405180910390f35b341561012357600080fd5b61012b61025a565b6040518080602001828103825283818151815260200191508051906020019080838360005b8381101561016b578082015181840152602081019050610150565b50505050905090810190601f1680156101985780820380516001836020036101000a031916815260200191505b509250505060405180910390f35b8181600091906101b7929190610302565b505050565b60008054600181600116156101000203166002900480601f0160208091040260200160405190810160405280929190818152602001828054600181600116156101000203166002900480156102525780601f1061022757610100808354040283529160200191610252565b820191906000526020600020905b81548152906001019060200180831161023557829003601f168201915b505050505081565b610262610382565b60008054600181600116156101000203166002900480601f0160208091040260200160405190810160405280929190818152602001828054600181600116156101000203166002900480156102f85780601f106102cd576101008083540402835291602001916102f8565b820191906000526020600020905b8154815290600101906020018083116102db57829003601f168201915b5050505050905090565b828054600181600116156101000203166002900490600052602060002090601f016020900481019282601f1061034357803560ff1916838001178555610371565b82800160010185558215610371579182015b82811115610370578235825591602001919060010190610355565b5b50905061037e9190610396565b5090565b602060405190810160405280600081525090565b6103b891905b808211156103b457600081600090555060010161039c565b5090565b905600a165627a7a72305820a7ee62609d50da69af403f196842d8f9cad6d8bfec956325c417771bfc5496070029",
  "source": "//adding getter function, previously only had setHash function..\npragma solidity ^0.4.18;\n\n\ncontract IpfsContract {\n    string public ipfsHash;\n    \n    function setHash(string _ipfsHash) external {\n        ipfsHash = _ipfsHash;   \n    }\n\n    function getHash() view returns (string) {\n        return ipfsHash;\n    }\n}\n\n/*\n// Once deployed, try within truffle console\ninstance.ContractfunctionName(argument).then(function(result){\nconsole.log(\"Value was set to\", result.logs[0].args.val);\n})\n\nIPFS STRING QmNkjdxo83a2p6t9DMpHS31R7pUJUz6PxtMEU4Ea1XPker\n\ninstance.setHash('QmNkjdxo83a2p6t9DMpHS31R7pUJUz6PxtMEU4Ea1XPker').then(function(result){\nconsole.log(\"Value was set to\", result.logs[0].args.val);\n})\n-----------------\nThis Worked :D\ntruffle(development)> IpfsContract.deployed().then(instance => instance.setHash.sendTransaction('0x3')).then(result => newStorageHash = result)\n'0x9cc740cac2bfd3a3fabc484659556a368af354dcba2dc9190354fe3a5087032e'\n\nreplace sendTransaction with call to just call functions.. Calls getHash function I added. Don't know yet how to call the string type variable without using a function.\ntruffle(development)> IpfsContract.deployed().then(instance => instance.getHash.call()).then(result => ipfsHash = result)\n-----------------\n*/",
  "sourcePath": "/Users/peza/Documents/crypto/IPFS-Solidity-hash-storage/contracts/IpfsContract.sol",
  "compiler": {
    "name": "solc",
    "version": "0.4.19+commit.c4cbbb05.Emscripten.clang"
  },
  "schemaVersion": "1.0.1",
  "updatedAt": "2018-03-12T07:45:02.547Z"
}