{
  "contractName": "IpfsContract",
  "abi": [
    {
      "constant": false,
      "inputs": [
        {
          "name": "_ipfsHash",
          "type": "string"
        }
      ],
      "name": "setHash",
      "outputs": [],
      "payable": false,
      "stateMutability": "nonpayable",
      "type": "function"
    },
    {
      "constant": true,
      "inputs": [],
      "name": "ipfsHash",
      "outputs": [
        {
          "name": "",
          "type": "string"
        }
      ],
      "payable": false,
      "stateMutability": "view",
      "type": "function"
    }
  ],
  "bytecode": "0x6060604052341561000f57600080fd5b6102928061001e6000396000f30060606040526004361061004c576000357c0100000000000000000000000000000000000000000000000000000000900463ffffffff1680631ed83fd414610051578063c623674f1461007f575b600080fd5b341561005c57600080fd5b61007d6004808035906020019082018035906020019190919290505061010d565b005b341561008a57600080fd5b610092610123565b6040518080602001828103825283818151815260200191508051906020019080838360005b838110156100d25780820151818401526020810190506100b7565b50505050905090810190601f1680156100ff5780820380516001836020036101000a031916815260200191505b509250505060405180910390f35b81816000919061011e9291906101c1565b505050565b60008054600181600116156101000203166002900480601f0160208091040260200160405190810160405280929190818152602001828054600181600116156101000203166002900480156101b95780601f1061018e576101008083540402835291602001916101b9565b820191906000526020600020905b81548152906001019060200180831161019c57829003601f168201915b505050505081565b828054600181600116156101000203166002900490600052602060002090601f016020900481019282601f1061020257803560ff1916838001178555610230565b82800160010185558215610230579182015b8281111561022f578235825591602001919060010190610214565b5b50905061023d9190610241565b5090565b61026391905b8082111561025f576000816000905550600101610247565b5090565b905600a165627a7a723058204f2d9ceb5bc48ad5a5ed00be89c1c8cba91fd81d078b78b960ef05ae102f133c0029",
  "source": "pragma solidity ^0.4.18;\n\ncontract IpfsContract {\n    string public ipfsHash;\n    \n    function setHash(string _ipfsHash) external {\n        ipfsHash = _ipfsHash;   \n    }\n}",
  "sourcePath": "C:\\Users\\Rahul\\Desktop\\Rahul\\SOLIDITY\\ipfstry1\\contracts\\IpfsContract.sol",
  "compiler": {
    "name": "solc",
    "version": "0.4.18+commit.9cf6e910.Emscripten.clang"
  },
  "schemaVersion": "1.0.1",
  "updatedAt": "2018-02-19T14:28:40.627Z"
}